{
  "transactions": [
    {
      "hash": "0x7f4e93dddd72bafb246bd745e6b994cb141e277c5dd76bd5563fad9a99ee2cad",
      "transactionType": "CALL",
      "contractName": null,
      "contractAddress": "0x6b802bd0abe1b9393e2a3bfe7f72fd28a6b29994",
      "function": "applyChainUpdates(uint64[],(uint64,bytes[],bytes,(bool,uint128,uint128),(bool,uint128,uint128))[])",
      "arguments": [
        "[]",
        "[(6898391096552792247, [0x000000000000000000000000aa75a677cf78d669bf0fdecb1ba81dc5b305a562], 0x0000000000000000000000003a02742d9a82a2d5c0a7597fef10ca3910d5ee48, (false, 0, 0), (false, 0, 0))]"
      ],
      "transaction": {
        "from": "0xbc4b0fc8eb6c564488c6cb8859c09e37f839e441",
        "to": "0x6b802bd0abe1b9393e2a3bfe7f72fd28a6b29994",
        "gas": "0x6a3e8",
        "value": "0x0",
        "input": "0xe8a1da17000000000000000000000000000000000000000000000000000000000000004000000000000000000000000000000000000000000000000000000000000000600000000000000000000000000000000000000000000000000000000000000000000000000000000000000000000000000000000000000000000000000000000100000000000000000000000000000000000000000000000000000000000000200000000000000000000000000000000000000000000000005fbc02272fbf20b7000000000000000000000000000000000000000000000000000000000000012000000000000000000000000000000000000000000000000000000000000001a0000000000000000000000000000000000000000000000000000000000000000000000000000000000000000000000000000000000000000000000000000000000000000000000000000000000000000000000000000000000000000000000000000000000000000000000000000000000000000000000000000000000000000000000000000000000000000000000000000000000000000000000000000000000000000000000000000000000000000000000000000000000000000000000000000000000000000000000000000000000000000000000000000000000000000100000000000000000000000000000000000000000000000000000000000000200000000000000000000000000000000000000000000000000000000000000020000000000000000000000000aa75a677cf78d669bf0fdecb1ba81dc5b305a56200000000000000000000000000000000000000000000000000000000000000200000000000000000000000003a02742d9a82a2d5c0a7597fef10ca3910d5ee48",
        "nonce": "0x39",
        "chainId": "0xaa36a7"
      },
      "additionalContracts": [],
      "isFixedGasLimit": false
    }
  ],
  "receipts": [
    {
      "status": "0x1",
      "cumulativeGasUsed": "0x14560d5",
      "logs": [
        {
          "address": "0x6b802bd0abe1b9393e2a3bfe7f72fd28a6b29994",
          "topics": [
            "0x7d628c9a1796743d365ab521a8b2a4686e419b3269919dc9145ea2ce853b54ea",
            "0x0000000000000000000000000000000000000000000000005fbc02272fbf20b7"
          ],
          "data": "0x00000000000000000000000000000000000000000000000000000000000000200000000000000000000000000000000000000000000000000000000000000020000000000000000000000000aa75a677cf78d669bf0fdecb1ba81dc5b305a562",
          "blockHash": "0xcb89e378b436fa72cb904049ee0bcf5e842448bc8a7b6f1afc3986b00daf3c48",
          "blockNumber": "0x8bd7ab",
          "blockTimestamp": "0x68bfa9ac",
          "transactionHash": "0x7f4e93dddd72bafb246bd745e6b994cb141e277c5dd76bd5563fad9a99ee2cad",
          "transactionIndex": "0x45",
          "logIndex": "0x79",
          "removed": false
        },
        {
          "address": "0x6b802bd0abe1b9393e2a3bfe7f72fd28a6b29994",
          "topics": [
            "0x8d340f17e19058004c20453540862a9c62778504476f6756755cb33bcd6c38c2"
          ],
          "data": "0x0000000000000000000000000000000000000000000000005fbc02272fbf20b7000000000000000000000000000000000000000000000000000000000000010000000000000000000000000000000000000000000000000000000000000000000000000000000000000000000000000000000000000000000000000000000000000000000000000000000000000000000000000000000000000000000000000000000000000000000000000000000000000000000000000000000000000000000000000000000000000000000000000000000000000000000000000000000000000000000000000000000000000000000000000000000000000000000000000000000000000000000000000000000000000000000000000000000000000000200000000000000000000000003a02742d9a82a2d5c0a7597fef10ca3910d5ee48",
          "blockHash": "0xcb89e378b436fa72cb904049ee0bcf5e842448bc8a7b6f1afc3986b00daf3c48",
          "blockNumber": "0x8bd7ab",
          "blockTimestamp": "0x68bfa9ac",
          "transactionHash": "0x7f4e93dddd72bafb246bd745e6b994cb141e277c5dd76bd5563fad9a99ee2cad",
          "transactionIndex": "0x45",
          "logIndex": "0x7a",
          "removed": false
        }
      ],
      "logsBloom": "0x00000000000000400000000000000000000000000000000000000000000000020000000000000000000000000000000000000000000000000004000000000004000000000000000000000000040000000000000000000000000000000000000000000000000000000000000000000040000000000000000000000000000000400000000000000000000000000000000000000000000000000000000000000000000000000000008000000000000000000000000000000000000000000000000000000000000000000000000000000000000000000000000000000000000000000000000000080000000000000000000000000000048000000100000000000000",
      "type": "0x2",
      "transactionHash": "0x7f4e93dddd72bafb246bd745e6b994cb141e277c5dd76bd5563fad9a99ee2cad",
      "transactionIndex": "0x45",
      "blockHash": "0xcb89e378b436fa72cb904049ee0bcf5e842448bc8a7b6f1afc3986b00daf3c48",
      "blockNumber": "0x8bd7ab",
      "gasUsed": "0x4ceb4",
      "effectiveGasPrice": "0xbe4f43d",
      "from": "0xbc4b0fc8eb6c564488c6cb8859c09e37f839e441",
      "to": "0x6b802bd0abe1b9393e2a3bfe7f72fd28a6b29994",
      "contractAddress": null
    }
  ],
  "libraries": [],
  "pending": [],
  "returns": {},
  "timestamp": 1757391276,
  "chain": 11155111,
  "commit": "c17f52e"
}