{
  "transactions": [
    {
      "hash": "0x71ed95b3a9f07fb8993659a562a2fe784f4281a4052eeee78091bf4c999e3776",
      "transactionType": "CALL",
      "contractName": null,
      "contractAddress": "0x3198ab4678c19d71d78a0de146b03646c974c44f",
      "function": "applyChainUpdates(uint64[],(uint64,bytes[],bytes,(bool,uint128,uint128),(bool,uint128,uint128))[])",
      "arguments": [
        "[]",
        "[(6898391096552792247, [0x0000000000000000000000006777993525360c19547294b99c4176bede2a9b1f], 0x000000000000000000000000f43a51029f2b1ecf7425beb7572235448037e060, (false, 0, 0), (false, 0, 0))]"
      ],
      "transaction": {
        "from": "0xbc4b0fc8eb6c564488c6cb8859c09e37f839e441",
        "to": "0x3198ab4678c19d71d78a0de146b03646c974c44f",
        "gas": "0x6a3e8",
        "value": "0x0",
        "input": "0xe8a1da17000000000000000000000000000000000000000000000000000000000000004000000000000000000000000000000000000000000000000000000000000000600000000000000000000000000000000000000000000000000000000000000000000000000000000000000000000000000000000000000000000000000000000100000000000000000000000000000000000000000000000000000000000000200000000000000000000000000000000000000000000000005fbc02272fbf20b7000000000000000000000000000000000000000000000000000000000000012000000000000000000000000000000000000000000000000000000000000001a00000000000000000000000000000000000000000000000000000000000000000000000000000000000000000000000000000000000000000000000000000000000000000000000000000000000000000000000000000000000000000000000000000000000000000000000000000000000000000000000000000000000000000000000000000000000000000000000000000000000000000000000000000000000000000000000000000000000000000000000000000000000000000000000000000000000000000000000000000000000000000000000000000000000000001000000000000000000000000000000000000000000000000000000000000002000000000000000000000000000000000000000000000000000000000000000200000000000000000000000006777993525360c19547294b99c4176bede2a9b1f0000000000000000000000000000000000000000000000000000000000000020000000000000000000000000f43a51029f2b1ecf7425beb7572235448037e060",
        "nonce": "0x2f",
        "chainId": "0xaa36a7"
      },
      "additionalContracts": [],
      "isFixedGasLimit": false
    }
  ],
  "receipts": [
    {
      "status": "0x1",
      "cumulativeGasUsed": "0x251763d",
      "logs": [
        {
          "address": "0x3198ab4678c19d71d78a0de146b03646c974c44f",
          "topics": [
            "0x7d628c9a1796743d365ab521a8b2a4686e419b3269919dc9145ea2ce853b54ea",
            "0x0000000000000000000000000000000000000000000000005fbc02272fbf20b7"
          ],
          "data": "0x000000000000000000000000000000000000000000000000000000000000002000000000000000000000000000000000000000000000000000000000000000200000000000000000000000006777993525360c19547294b99c4176bede2a9b1f",
          "blockHash": "0x8b86449bcd2bae1e89dbd1157e606bef2303cf082560fb11e4493f6c91808504",
          "blockNumber": "0x8bd729",
          "blockTimestamp": "0x68bfa37c",
          "transactionHash": "0x71ed95b3a9f07fb8993659a562a2fe784f4281a4052eeee78091bf4c999e3776",
          "transactionIndex": "0x8d",
          "logIndex": "0xc1a",
          "removed": false
        },
        {
          "address": "0x3198ab4678c19d71d78a0de146b03646c974c44f",
          "topics": [
            "0x8d340f17e19058004c20453540862a9c62778504476f6756755cb33bcd6c38c2"
          ],
          "data": "0x0000000000000000000000000000000000000000000000005fbc02272fbf20b700000000000000000000000000000000000000000000000000000000000001000000000000000000000000000000000000000000000000000000000000000000000000000000000000000000000000000000000000000000000000000000000000000000000000000000000000000000000000000000000000000000000000000000000000000000000000000000000000000000000000000000000000000000000000000000000000000000000000000000000000000000000000000000000000000000000000000000000000000000000000000000000000000000000000000000000000000000000000000000000000000000000000000000000000000020000000000000000000000000f43a51029f2b1ecf7425beb7572235448037e060",
          "blockHash": "0x8b86449bcd2bae1e89dbd1157e606bef2303cf082560fb11e4493f6c91808504",
          "blockNumber": "0x8bd729",
          "blockTimestamp": "0x68bfa37c",
          "transactionHash": "0x71ed95b3a9f07fb8993659a562a2fe784f4281a4052eeee78091bf4c999e3776",
          "transactionIndex": "0x8d",
          "logIndex": "0xc1b",
          "removed": false
        }
      ],
      "logsBloom": "0x00000000000000400000000000000000000008000000000000000000000000000000000000000000000000000000000000000000000000000004000000000004800000000000000000000000040000000000000000000000008000000000000000000000000000000000000000000040000000000000000000000000000000400000000000000000000000000000000000000000000000000000000000000000000000000000008000000000000000000000000000000000000000000000000000000000000000000000000000000000000000000000000000000000000000000000000000000000000000000000000000000000008000000100000000000000",
      "type": "0x2",
      "transactionHash": "0x71ed95b3a9f07fb8993659a562a2fe784f4281a4052eeee78091bf4c999e3776",
      "transactionIndex": "0x8d",
      "blockHash": "0x8b86449bcd2bae1e89dbd1157e606bef2303cf082560fb11e4493f6c91808504",
      "blockNumber": "0x8bd729",
      "gasUsed": "0x4ceb4",
      "effectiveGasPrice": "0x6a542a9",
      "from": "0xbc4b0fc8eb6c564488c6cb8859c09e37f839e441",
      "to": "0x3198ab4678c19d71d78a0de146b03646c974c44f",
      "contractAddress": null
    }
  ],
  "libraries": [],
  "pending": [],
  "returns": {},
  "timestamp": 1757389693,
  "chain": 11155111,
  "commit": "c17f52e"
}