{
  "transactions": [
    {
      "hash": "0x4b723be188b24cb4004542763fa21f75e64e2e390255802bc7c41a669a60061c",
      "transactionType": "CALL",
      "contractName": null,
      "contractAddress": "0x779877a7b0d9e8603169ddbd7836e478b4624789",
      "function": "approve(address,uint256)",
      "arguments": [
        "0x0BF3dE8c5D3e8A2B34D2BEeB17ABfCeBaf363A59",
        "11570254277634546"
      ],
      "transaction": {
        "from": "0xbc4b0fc8eb6c564488c6cb8859c09e37f839e441",
        "to": "0x779877a7b0d9e8603169ddbd7836e478b4624789",
        "gas": "0x1081f",
        "value": "0x0",
        "input": "0x095ea7b30000000000000000000000000bf3de8c5d3e8a2b34d2beeb17abfcebaf363a5900000000000000000000000000000000000000000000000000291b15c02de9f2",
        "nonce": "0x3b",
        "chainId": "0xaa36a7"
      },
      "additionalContracts": [],
      "isFixedGasLimit": false
    },
    {
      "hash": "0x7ab35f800358a902ba1fb984293e61d548672cb1155f700090d29ddbfaea4389",
      "transactionType": "CALL",
      "contractName": null,
      "contractAddress": "0xcfdbd1bc72c791799aab87fa3bbb9a09a60979d9",
      "function": "approve(address,uint256)",
      "arguments": [
        "0x0BF3dE8c5D3e8A2B34D2BEeB17ABfCeBaf363A59",
        "100000"
      ],
      "transaction": {
        "from": "0xbc4b0fc8eb6c564488c6cb8859c09e37f839e441",
        "to": "0xcfdbd1bc72c791799aab87fa3bbb9a09a60979d9",
        "gas": "0x10c27",
        "value": "0x0",
        "input": "0x095ea7b30000000000000000000000000bf3de8c5d3e8a2b34d2beeb17abfcebaf363a5900000000000000000000000000000000000000000000000000000000000186a0",
        "nonce": "0x3c",
        "chainId": "0xaa36a7"
      },
      "additionalContracts": [],
      "isFixedGasLimit": false
    },
    {
      "hash": "0x9bf6e733aad629365739f49ede32a8c307f3f0724ec232f01baf8733ddb17aa1",
      "transactionType": "CALL",
      "contractName": null,
      "contractAddress": "0x0bf3de8c5d3e8a2b34d2beeb17abfcebaf363a59",
      "function": "ccipSend(uint64,(bytes,bytes,(address,uint256)[],address,bytes))",
      "arguments": [
        "6898391096552792247",
        "(0x000000000000000000000000bc4b0fc8eb6c564488c6cb8859c09e37f839e441, 0x, [(0xCFdBD1bc72C791799aAB87fA3BbB9a09A60979d9, 100000)], 0x779877A7B0D9E8603169DdbD7836e478b4624789, 0x97a657c90000000000000000000000000000000000000000000000000000000000000000)"
      ],
      "transaction": {
        "from": "0xbc4b0fc8eb6c564488c6cb8859c09e37f839e441",
        "to": "0x0bf3de8c5d3e8a2b34d2beeb17abfcebaf363a59",
        "gas": "0x638a0",
        "value": "0x0",
        "input": "0x96f4e9f90000000000000000000000000000000000000000000000005fbc02272fbf20b7000000000000000000000000000000000000000000000000000000000000004000000000000000000000000000000000000000000000000000000000000000a000000000000000000000000000000000000000000000000000000000000000e00000000000000000000000000000000000000000000000000000000000000100000000000000000000000000779877a7b0d9e8603169ddbd7836e478b462478900000000000000000000000000000000000000000000000000000000000001600000000000000000000000000000000000000000000000000000000000000020000000000000000000000000bc4b0fc8eb6c564488c6cb8859c09e37f839e44100000000000000000000000000000000000000000000000000000000000000000000000000000000000000000000000000000000000000000000000000000001000000000000000000000000cfdbd1bc72c791799aab87fa3bbb9a09a60979d900000000000000000000000000000000000000000000000000000000000186a0000000000000000000000000000000000000000000000000000000000000002497a657c9000000000000000000000000000000000000000000000000000000000000000000000000000000000000000000000000000000000000000000000000",
        "nonce": "0x3d",
        "chainId": "0xaa36a7"
      },
      "additionalContracts": [],
      "isFixedGasLimit": false
    }
  ],
  "receipts": [
    {
      "status": "0x1",
      "cumulativeGasUsed": "0x234a205",
      "logs": [
        {
          "address": "0x779877a7b0d9e8603169ddbd7836e478b4624789",
          "topics": [
            "0x8c5be1e5ebec7d5bd14f71427d1e84f3dd0314c0f7b2291e5b200ac8c7c3b925",
            "0x000000000000000000000000bc4b0fc8eb6c564488c6cb8859c09e37f839e441",
            "0x0000000000000000000000000bf3de8c5d3e8a2b34d2beeb17abfcebaf363a59"
          ],
          "data": "0x00000000000000000000000000000000000000000000000000291b15c02de9f2",
          "blockHash": "0xb71053e742c03b7b016fa23ce4254df1cbb3575b2c091dd19407caa34ac1f235",
          "blockNumber": "0x8bd7c5",
          "blockTimestamp": "0x68bfab08",
          "transactionHash": "0x4b723be188b24cb4004542763fa21f75e64e2e390255802bc7c41a669a60061c",
          "transactionIndex": "0x66",
          "logIndex": "0xc2b",
          "removed": false
        }
      ],
      "logsBloom": "0x00000004000040000000000000000000000000000000000000000000000000000000000000000000000000000000000000000000000000000000000000200000000000000000000000000000000000000000000000000000000000000000000000000000000100000000000000000000000000000000000000000000000000000000000000000000000000000000800000000000000000000000000400000000020000000000080000000000800000000000000000000000000000000000000000000000000000000001000000000000000000000000000100000000000000000010000000000000000000000000000000000000000000000000000000000000",
      "type": "0x2",
      "transactionHash": "0x4b723be188b24cb4004542763fa21f75e64e2e390255802bc7c41a669a60061c",
      "transactionIndex": "0x66",
      "blockHash": "0xb71053e742c03b7b016fa23ce4254df1cbb3575b2c091dd19407caa34ac1f235",
      "blockNumber": "0x8bd7c5",
      "gasUsed": "0xb499",
      "effectiveGasPrice": "0x7103520",
      "from": "0xbc4b0fc8eb6c564488c6cb8859c09e37f839e441",
      "to": "0x779877a7b0d9e8603169ddbd7836e478b4624789",
      "contractAddress": null
    },
    {
      "status": "0x1",
      "cumulativeGasUsed": "0x2355960",
      "logs": [
        {
          "address": "0xcfdbd1bc72c791799aab87fa3bbb9a09a60979d9",
          "topics": [
            "0x8c5be1e5ebec7d5bd14f71427d1e84f3dd0314c0f7b2291e5b200ac8c7c3b925",
            "0x000000000000000000000000bc4b0fc8eb6c564488c6cb8859c09e37f839e441",
            "0x0000000000000000000000000bf3de8c5d3e8a2b34d2beeb17abfcebaf363a59"
          ],
          "data": "0x00000000000000000000000000000000000000000000000000000000000186a0",
          "blockHash": "0xb71053e742c03b7b016fa23ce4254df1cbb3575b2c091dd19407caa34ac1f235",
          "blockNumber": "0x8bd7c5",
          "blockTimestamp": "0x68bfab08",
          "transactionHash": "0x7ab35f800358a902ba1fb984293e61d548672cb1155f700090d29ddbfaea4389",
          "transactionIndex": "0x67",
          "logIndex": "0xc2c",
          "removed": false
        }
      ],
      "logsBloom": "0x00000000000040000000000000000000000000000000000000000000000000000040000000000000000000000000000000000000000000000000000000200000000000000000000000000000000000000000000000000000000000000000000000000000000100000000000000000000001000000000000000000000000000000000000000000000000000000000000000000080000000000000000400000000020000000000080000000000800000000000000000000000000000000000000000000000000000000001000000000000000000000000000000000000000000000010000000000000000000000000000000000000000000000000000000000000",
      "type": "0x2",
      "transactionHash": "0x7ab35f800358a902ba1fb984293e61d548672cb1155f700090d29ddbfaea4389",
      "transactionIndex": "0x67",
      "blockHash": "0xb71053e742c03b7b016fa23ce4254df1cbb3575b2c091dd19407caa34ac1f235",
      "blockNumber": "0x8bd7c5",
      "gasUsed": "0xb75b",
      "effectiveGasPrice": "0x7103520",
      "from": "0xbc4b0fc8eb6c564488c6cb8859c09e37f839e441",
      "to": "0xcfdbd1bc72c791799aab87fa3bbb9a09a60979d9",
      "contractAddress": null
    },
    {
      "status": "0x1",
      "cumulativeGasUsed": "0x2399a5a",
      "logs": [
        {
          "address": "0x779877a7b0d9e8603169ddbd7836e478b4624789",
          "topics": [
            "0xddf252ad1be2c89b69c2b068fc378daa952ba7f163c4a11628f55a4df523b3ef",
            "0x000000000000000000000000bc4b0fc8eb6c564488c6cb8859c09e37f839e441",
            "0x000000000000000000000000a2865e4f36760f5fa5c8f958336120f2df0d974b"
          ],
          "data": "0x00000000000000000000000000000000000000000000000000291b15c02de9f2",
          "blockHash": "0xb71053e742c03b7b016fa23ce4254df1cbb3575b2c091dd19407caa34ac1f235",
          "blockNumber": "0x8bd7c5",
          "blockTimestamp": "0x68bfab08",
          "transactionHash": "0x9bf6e733aad629365739f49ede32a8c307f3f0724ec232f01baf8733ddb17aa1",
          "transactionIndex": "0x68",
          "logIndex": "0xc2d",
          "removed": false
        },
        {
          "address": "0x779877a7b0d9e8603169ddbd7836e478b4624789",
          "topics": [
            "0x8c5be1e5ebec7d5bd14f71427d1e84f3dd0314c0f7b2291e5b200ac8c7c3b925",
            "0x000000000000000000000000bc4b0fc8eb6c564488c6cb8859c09e37f839e441",
            "0x0000000000000000000000000bf3de8c5d3e8a2b34d2beeb17abfcebaf363a59"
          ],
          "data": "0x0000000000000000000000000000000000000000000000000000000000000000",
          "blockHash": "0xb71053e742c03b7b016fa23ce4254df1cbb3575b2c091dd19407caa34ac1f235",
          "blockNumber": "0x8bd7c5",
          "blockTimestamp": "0x68bfab08",
          "transactionHash": "0x9bf6e733aad629365739f49ede32a8c307f3f0724ec232f01baf8733ddb17aa1",
          "transactionIndex": "0x68",
          "logIndex": "0xc2e",
          "removed": false
        },
        {
          "address": "0xcfdbd1bc72c791799aab87fa3bbb9a09a60979d9",
          "topics": [
            "0xddf252ad1be2c89b69c2b068fc378daa952ba7f163c4a11628f55a4df523b3ef",
            "0x0000000000000000000000000000000000000000000000000000000000000000",
            "0x000000000000000000000000bc4b0fc8eb6c564488c6cb8859c09e37f839e441"
          ],
          "data": "0x0000000000000000000000000000000000000000000000000000000000000001",
          "blockHash": "0xb71053e742c03b7b016fa23ce4254df1cbb3575b2c091dd19407caa34ac1f235",
          "blockNumber": "0x8bd7c5",
          "blockTimestamp": "0x68bfab08",
          "transactionHash": "0x9bf6e733aad629365739f49ede32a8c307f3f0724ec232f01baf8733ddb17aa1",
          "transactionIndex": "0x68",
          "logIndex": "0xc2f",
          "removed": false
        },
        {
          "address": "0xcfdbd1bc72c791799aab87fa3bbb9a09a60979d9",
          "topics": [
            "0xddf252ad1be2c89b69c2b068fc378daa952ba7f163c4a11628f55a4df523b3ef",
            "0x0000000000000000000000000000000000000000000000000000000000000000",
            "0x0000000000000000000000006b802bd0abe1b9393e2a3bfe7f72fd28a6b29994"
          ],
          "data": "0x0000000000000000000000000000000000000000000000000000000000000000",
          "blockHash": "0xb71053e742c03b7b016fa23ce4254df1cbb3575b2c091dd19407caa34ac1f235",
          "blockNumber": "0x8bd7c5",
          "blockTimestamp": "0x68bfab08",
          "transactionHash": "0x9bf6e733aad629365739f49ede32a8c307f3f0724ec232f01baf8733ddb17aa1",
          "transactionIndex": "0x68",
          "logIndex": "0xc30",
          "removed": false
        },
        {
          "address": "0xcfdbd1bc72c791799aab87fa3bbb9a09a60979d9",
          "topics": [
            "0xddf252ad1be2c89b69c2b068fc378daa952ba7f163c4a11628f55a4df523b3ef",
            "0x000000000000000000000000bc4b0fc8eb6c564488c6cb8859c09e37f839e441",
            "0x0000000000000000000000006b802bd0abe1b9393e2a3bfe7f72fd28a6b29994"
          ],
          "data": "0x00000000000000000000000000000000000000000000000000000000000186a0",
          "blockHash": "0xb71053e742c03b7b016fa23ce4254df1cbb3575b2c091dd19407caa34ac1f235",
          "blockNumber": "0x8bd7c5",
          "blockTimestamp": "0x68bfab08",
          "transactionHash": "0x9bf6e733aad629365739f49ede32a8c307f3f0724ec232f01baf8733ddb17aa1",
          "transactionIndex": "0x68",
          "logIndex": "0xc31",
          "removed": false
        },
        {
          "address": "0xcfdbd1bc72c791799aab87fa3bbb9a09a60979d9",
          "topics": [
            "0xddf252ad1be2c89b69c2b068fc378daa952ba7f163c4a11628f55a4df523b3ef",
            "0x0000000000000000000000000000000000000000000000000000000000000000",
            "0x0000000000000000000000006b802bd0abe1b9393e2a3bfe7f72fd28a6b29994"
          ],
          "data": "0x0000000000000000000000000000000000000000000000000000000000000000",
          "blockHash": "0xb71053e742c03b7b016fa23ce4254df1cbb3575b2c091dd19407caa34ac1f235",
          "blockNumber": "0x8bd7c5",
          "blockTimestamp": "0x68bfab08",
          "transactionHash": "0x9bf6e733aad629365739f49ede32a8c307f3f0724ec232f01baf8733ddb17aa1",
          "transactionIndex": "0x68",
          "logIndex": "0xc32",
          "removed": false
        },
        {
          "address": "0xcfdbd1bc72c791799aab87fa3bbb9a09a60979d9",
          "topics": [
            "0xddf252ad1be2c89b69c2b068fc378daa952ba7f163c4a11628f55a4df523b3ef",
            "0x0000000000000000000000006b802bd0abe1b9393e2a3bfe7f72fd28a6b29994",
            "0x0000000000000000000000000000000000000000000000000000000000000000"
          ],
          "data": "0x00000000000000000000000000000000000000000000000000000000000186a0",
          "blockHash": "0xb71053e742c03b7b016fa23ce4254df1cbb3575b2c091dd19407caa34ac1f235",
          "blockNumber": "0x8bd7c5",
          "blockTimestamp": "0x68bfab08",
          "transactionHash": "0x9bf6e733aad629365739f49ede32a8c307f3f0724ec232f01baf8733ddb17aa1",
          "transactionIndex": "0x68",
          "logIndex": "0xc33",
          "removed": false
        },
        {
          "address": "0xa2865e4f36760f5fa5c8f958336120f2df0d974b",
          "topics": [
            "0xd0c3c799bf9e2639de44391e7f524d229b2b55f5b1ea94b2bf7da42f7243dddd"
          ],
          "data": "0x0000000000000000000000000000000000000000000000000000000000000020000000000000000000000000000000000000000000000000de41ba4fc9d91ad9000000000000000000000000bc4b0fc8eb6c564488c6cb8859c09e37f839e441000000000000000000000000bc4b0fc8eb6c564488c6cb8859c09e37f839e44100000000000000000000000000000000000000000000000000000000000002e2000000000000000000000000000000000000000000000000000000000000000000000000000000000000000000000000000000000000000000000000000000000000000000000000000000000000000000000000000000000000000000000001000000000000000000000000779877a7b0d9e8603169ddbd7836e478b462478900000000000000000000000000000000000000000000000000291b15c02de9f200000000000000000000000000000000000000000000000000000000000001a000000000000000000000000000000000000000000000000000000000000001c00000000000000000000000000000000000000000000000000000000000000220073cc1c690a6e91431dacff6bd8ddc5701336b601897553b0a90070c4117ddf900000000000000000000000000000000000000000000000000000000000000000000000000000000000000000000000000000000000000000000000000000001000000000000000000000000cfdbd1bc72c791799aab87fa3bbb9a09a60979d900000000000000000000000000000000000000000000000000000000000186a00000000000000000000000000000000000000000000000000000000000000001000000000000000000000000000000000000000000000000000000000000002000000000000000000000000000000000000000000000000000000000000001600000000000000000000000000000000000000000000000000000000000000020000000000000000000000000000000000000000000000000000000000000008000000000000000000000000000000000000000000000000000000000000000c000000000000000000000000000000000000000000000000000000000000001000000000000000000000000000000000000000000000000000000000000015f9000000000000000000000000000000000000000000000000000000000000000200000000000000000000000006b802bd0abe1b9393e2a3bfe7f72fd28a6b2999400000000000000000000000000000000000000000000000000000000000000200000000000000000000000003a02742d9a82a2d5c0a7597fef10ca3910d5ee4800000000000000000000000000000000000000000000000000000000000000200000000000000000000000000000000000000000000000000000000ba43b7400",
          "blockHash": "0xb71053e742c03b7b016fa23ce4254df1cbb3575b2c091dd19407caa34ac1f235",
          "blockNumber": "0x8bd7c5",
          "blockTimestamp": "0x68bfab08",
          "transactionHash": "0x9bf6e733aad629365739f49ede32a8c307f3f0724ec232f01baf8733ddb17aa1",
          "transactionIndex": "0x68",
          "logIndex": "0xc34",
          "removed": false
        }
      ],
      "logsBloom": "0x00000004000040000000000000000000000000000000000000000000000000000040000000000000000000000000000000000000000000000000000000200000000000000000000000000008000000000000000000000000000000000000000010000000020100000000000000000800001000000000100000000010000000000000000000000000000000000000800000000080000000000000000400000000020000000000080400000000800000000000000000000000000100010000000000040002000000001001040000000000000000000100000100000000000020000010800000000000000000000000000004000800000000000000000000000000",
      "type": "0x2",
      "transactionHash": "0x9bf6e733aad629365739f49ede32a8c307f3f0724ec232f01baf8733ddb17aa1",
      "transactionIndex": "0x68",
      "blockHash": "0xb71053e742c03b7b016fa23ce4254df1cbb3575b2c091dd19407caa34ac1f235",
      "blockNumber": "0x8bd7c5",
      "gasUsed": "0x440fa",
      "effectiveGasPrice": "0x7103520",
      "from": "0xbc4b0fc8eb6c564488c6cb8859c09e37f839e441",
      "to": "0x0bf3de8c5d3e8a2b34d2beeb17abfcebaf363a59",
      "contractAddress": null
    }
  ],
  "libraries": [],
  "pending": [],
  "returns": {},
  "timestamp": 1757391624833,
  "chain": 11155111,
  "commit": "c17f52e"
}